:1000000054C0BEC26DC06CC06BC06AC069C068C05D
:1000100067C066C065C064C063C062C061C00501DE
:100020000906A101050719E029E715002501750159
:1000300095088102950175082565190029658100DB
:10004000C00000080F021F02200221000004030963
:100050000412036F0062006400650076002E0061E8
:10006000007400120346006F006F0074004C006FB4
:100070000063006B001201100100000008424231D1
:10008000E1000101020001090222000101008019C2
:100090000904000001030000000921010100012200
:1000A00023000705810308000A0011241FBECFE5C5
:1000B000D2E0DEBFCDBF10E0A0E6B0E0EEE3F8E0B6
:1000C00002C005900D92A436B107D9F710E0A4E65E
:1000D000B0E001C01D92AE39B107E1F732D0ADC337
:1000E0008FCFFC0184E690E09093830080938200A0
:1000F00080818076803219F58181813079F486B3F0
:10010000E82FF0E0E270F070EF5BFF4F8591949183
:10011000909365008093640082E00895823041F4FA
:1001200086E690E0909383008093820081E00895BA
:100130008A3029F483818093660080E0089580E00E
:1001400008950F931F9328E288E190E00FB6F8948A
:10015000A89581BD0FBE21BDE199FECF1FBA1EBA81
:10016000E09A8DB38F3F09F081BFB89A20E043EB4E
:1001700051EFCA010197F1F72F5F2431D1F7B898F9
:10018000C19A8EE028E130E00FB6F894A89521BD21
:100190000FBE81BD8BE080BF7DD0789400E022C08F
:1001A00011E0A895A4D086B390E0969587958170CC
:1001B000081711F0082F02C0112399F380916200F3
:1001C00084FFEECFE02FF0E0EE0FFF1FEF5BFF4F5D
:1001D00085919491909365008093640084E690E00B
:1001E00062E062D010E0DDCFDF92EF92FF920F93DA
:1001F0001F93CF93DF9300E030E8D32EEE24FF244B
:100200001D2D100F11BFA9D1EC0189E0C433D8070F
:100210000CF0102FD6940894E11CF11C88E0E8162D
:10022000F10411F0012FECCF115011BF1F5FE12E2F
:10023000FF240894E11CF11C13C08FD19C012453AE
:10024000394037FF03C0309521953F4F2C173D07AC
:1002500014F09E0101C011B781B78F5F81BFE90122
:1002600081B790E0E816F90644F711BF81B7E1992C
:10027000FECF1CBA1FBA1EBA8DBB0FB6F894E29A15
:10028000E19A0FBEDF91CF911F910F91FF90EF90F8
:10029000DF90089585B7836085BF8BB780648BBF7F
:1002A00083EC8093740008951F93DC01162F8091D6
:1002B000620084FF0AC08091740098E889278093C7
:1002C0007400912FE5E7F0E007C08AE580936200B3
:1002D000F8CF8D91819391509923D9F785E790E0DC
:1002E000612F37D11C5F109362001F9108950F9307
:1002F0001F93CF93DF939091840019160CF0ABC03D
:1003000020918100809180008D3209F09AC08AE5A9
:10031000809361009B3009F094C0CCE0D0E0C21B18
:10032000D109C857DF4F8881807609F07CC01092D0
:1003300072008981882359F41092730082E790E05B
:10034000909383008093820090E822E073C0853010
:1003500021F48A818093850064C0863009F046C00C
:100360008B81813019F485E790E023C0823049F415
:1003700087E890E0909383008093820090EC22E2E3
:1003800059C08330E9F48A81882349F48DE490E0F0
:10039000909383008093820090EC24E04BC08130E6
:1003A00019F481E590E005C0823009F041C083E690
:1003B00090E0909383008093820090EC22E13AC019
:1003C000813249F489E990E0909383008093820020
:1003D00090EC29E02FC0823259F58EE190E09093A5
:1003E00083008093820090EC23E224C0883019F4CB
:1003F00087E890E00AC0893021F48A8180938700E1
:1004000010C08A3049F482E790E090938300809393
:10041000820090E821E00EC08B3019F483EC8093C9
:10042000740090E806C0CE015CDE282F90E802C080
:1004300090EC20E08F81882339F48E81821728F098
:1004400003C090E880E001C0822F90936800809301
:100450006000109284008091610084FF49C0809107
:1004600060008F3F09F444C0182F893008F018E06D
:10047000811B809360008091680080FD02C00BE4C6
:1004800001C003EC8F5F809368002091820030915F
:10049000830086FD05C0D901912FEAE6F0E011C086
:1004A000AAE6B0E080E090E006C0F901E80FF91F8D
:1004B000E491ED9301961817C1F705C08D918193D2
:1004C00091509923D9F7F901E10FF11DF0938300C1
:1004D000E09382008AE690E0612F3BD0183019F05B
:1004E0008FEF80936000009369001C5F10936100A0
:1004F0009AE086B3857031F49150D9F71092850057
:1005000010927F0010E0992309F411E080916700B8
:10051000811729F0112309F467DE10936700DF913A
:10052000CF911F910F910895A82FB92F80E090E0EF
:1005300041E050EA60956F5F58F42D9138EF8227C3
:100540009795879510F0842795273F5FC8F3F3CFE1
:100550000895EADF8D939D930895A6E08827992753
:10056000AA9569F00197E1F3B099FCCFB09BFECF5B
:1005700081E09927A6B3019611F0A570D9F70895E7
:10058000CF93CFB7CF93B09BFECFB09B0BC0B09BA8
:1005900009C0B09B07C0B09B05C0B09B03C0B09B17
:1005A00001C0D5C00F92DF93C0918100DD27C857ED
:1005B000DF4F012EB09B03C0DF910F90E6CF2F934A
:1005C0000F931F934F932FEF4F6F06B300FB20F94C
:1005D0005F933F9350E03BE065C016B3012650297E
:1005E00050FDC89556B3012700FB25F92F7306B3BC
:1005F000B1F05027102710FB26F906B22230F0F098
:1006000000C016B3012700FB27F90126502906B2C6
:100610002430E8F54F77206816B30000F6CF502756
:100620004F7D206206B2102F000000C006B30026E6
:100630005029102710FB26F906B2E2CF4F7B06B3F4
:10064000206400C0DACF01265029157006B269F186
:100650004E7F2160012F16B328C0002650294D7F00
:1006600006B22260102F29C0012650294B7F06B206
:100670002460012F2DC016B301265029477F286022
:10068000000006B22EC04F7E06B3206130C0422764
:1006900006B3499300265029102706B24FEF10FBEE
:1006A00020F9297F16B379F2157059F101265029E6
:1006B00006B2012700FB21F9237F06B371F2002661
:1006C00050293150D0F006B2102710FB22F9277EB6
:1006D00016B351F201265029012700FB06B223F977
:1006E0002F7C49F2000006B3102710FB24F90026E6
:1006F000502906B22F7939F270CF10E41ABF0027C3
:1007000019C03B503195C31BD04010E41ABF08817B
:10071000033C09F10B34F9F020917F001981110F8E
:100720001213EDCF4A81441F093651F10D3211F0F9
:10073000013E29F7009386003F915F914F911F91F1
:100740000F912F91DF910F90CAB7C6FD1CCFCF91AB
:10075000CFBFCF91189500918600002369F31091C7
:100760008400112379F534307AF1309384000093BA
:100770008000109181003BE0311B3093810024C048
:10078000009184000130F4F40AE54F7049F430918F
:10079000610034FD1AC000936100C9E6D0E019C0C1
:1007A0003091620034FD11C000936200C4E7D0E0D4
:1007B00010C0052710E000C021C0052710E0C89533
:1007C00008BB14C03AE501C032ED032EC0E0D0E012
:1007D00032E017B31560C09A08B317BB55E020E8A4
:1007E0004FEF20FF052708BB279517951C3F28F7DB
:1007F00000004552B0F720FF0527279508BB179545
:100800001C3FB8F629913A9561F70A7F109185004F
:10081000110F08BBC250D04011F010937F0010E4BC
:100820001ABF016017B31A7F402F4A7F54E05A95D0
:0E083000F1F708BB17BB48BB7FCFF894FFCF92
:04083E00FF5A5A0003
:00000001FF
